{
  "_format": "hh-sol-artifact-1",
  "contractName": "etherTranscation",
  "sourceName": "contracts/reactbank.sol",
  "abi": [
    {
      "inputs": [],
      "name": "balance",
      "outputs": [
        {
          "internalType": "uint256",
          "name": "",
          "type": "uint256"
        }
      ],
      "stateMutability": "view",
      "type": "function"
    },
    {
      "inputs": [],
      "name": "bankBalance",
      "outputs": [
        {
          "internalType": "uint256",
          "name": "",
          "type": "uint256"
        }
      ],
      "stateMutability": "view",
      "type": "function"
    },
    {
      "inputs": [
        {
          "internalType": "uint256",
          "name": "_withdraw",
          "type": "uint256"
        }
      ],
      "name": "bankToWalletTransfer",
      "outputs": [
        {
          "internalType": "string",
          "name": "",
          "type": "string"
        }
      ],
      "stateMutability": "nonpayable",
      "type": "function"
    },
    {
      "inputs": [],
      "name": "contractBalance",
      "outputs": [
        {
          "internalType": "uint256",
          "name": "",
          "type": "uint256"
        }
      ],
      "stateMutability": "view",
      "type": "function"
    },
    {
      "inputs": [],
      "name": "walletToBankTransfer",
      "outputs": [
        {
          "internalType": "string",
          "name": "",
          "type": "string"
        }
      ],
      "stateMutability": "payable",
      "type": "function"
    },
    {
      "inputs": [
        {
          "internalType": "address",
          "name": "_toAddress",
          "type": "address"
        }
      ],
      "name": "walletToWalletTransfer",
      "outputs": [
        {
          "internalType": "string",
          "name": "",
          "type": "string"
        }
      ],
      "stateMutability": "payable",
      "type": "function"
    }
  ],
  "bytecode": "0x608060405234801561001057600080fd5b506109fd806100206000396000f3fe6080604052600436106100555760003560e01c80631bb71e701461005a57806320b2b43f1461008a57806328657aa5146100a85780638b7afe2e146100d3578063b2d8205e146100fe578063b69ef8a81461013b575b600080fd5b610074600480360381019061006f91906105bd565b610166565b60405161008191906106f8565b60405180910390f35b610092610252565b60405161009f91906106f8565b60405180910390f35b3480156100b457600080fd5b506100bd61032d565b6040516100ca919061077a565b60405180910390f35b3480156100df57600080fd5b506100e8610374565b6040516100f5919061077a565b60405180910390f35b34801561010a57600080fd5b50610125600480360381019061012091906105e6565b61037c565b60405161013291906106f8565b60405180910390f35b34801561014757600080fd5b5061015061058d565b60405161015d919061077a565b60405180910390f35b606060008273ffffffffffffffffffffffffffffffffffffffff163460405161018e906106e3565b60006040518083038185875af1925050503d80600081146101cb576040519150601f19603f3d011682016040523d82523d6000602084013e6101d0565b606091505b5050905080610214576040517f08c379a000000000000000000000000000000000000000000000000000000000815260040161020b9061071a565b60405180910390fd5b6040518060400160405280601881526020017f5375636365737366756c6c79205472616e736566657265640000000000000000815250915050919050565b6060655af3107a4000341161029c576040517f08c379a00000000000000000000000000000000000000000000000000000000081526004016102939061073a565b60405180910390fd5b34600160003373ffffffffffffffffffffffffffffffffffffffff1673ffffffffffffffffffffffffffffffffffffffff16815260200190815260200160002060008282546102eb91906107bc565b925050819055506040518060400160405280602081526020017f5375636365737366756c6c79204465706f736974652074686520416d6f756e74815250905090565b6000600160003373ffffffffffffffffffffffffffffffffffffffff1673ffffffffffffffffffffffffffffffffffffffff16815260200190815260200160002054905090565b600047905090565b6060600160003373ffffffffffffffffffffffffffffffffffffffff1673ffffffffffffffffffffffffffffffffffffffff1681526020019081526020016000205482106103ff576040517f08c379a00000000000000000000000000000000000000000000000000000000081526004016103f69061075a565b60405180910390fd5b655af3107a40008211610447576040517f08c379a000000000000000000000000000000000000000000000000000000000815260040161043e9061073a565b60405180910390fd5b600033905060008173ffffffffffffffffffffffffffffffffffffffff1684604051610472906106e3565b60006040518083038185875af1925050503d80600081146104af576040519150601f19603f3d011682016040523d82523d6000602084013e6104b4565b606091505b50509050806104f8576040517f08c379a00000000000000000000000000000000000000000000000000000000081526004016104ef9061071a565b60405180910390fd5b83600160003373ffffffffffffffffffffffffffffffffffffffff1673ffffffffffffffffffffffffffffffffffffffff16815260200190815260200160002060008282546105479190610812565b925050819055506040518060400160405280602081526020017f5375636365737366756c6c792057697468647261772074686520416d6f756e7481525092505050919050565b60005481565b6000813590506105a281610999565b92915050565b6000813590506105b7816109b0565b92915050565b6000602082840312156105cf57600080fd5b60006105dd84828501610593565b91505092915050565b6000602082840312156105f857600080fd5b6000610606848285016105a8565b91505092915050565b600061061a82610795565b61062481856107ab565b9350610634818560208601610882565b61063d816108e4565b840191505092915050565b60006106556015836107ab565b9150610660826108f5565b602082019050919050565b60006106786027836107ab565b91506106838261091e565b604082019050919050565b600061069b601f836107ab565b91506106a68261096d565b602082019050919050565b60006106be6000836107a0565b91506106c982610996565b600082019050919050565b6106dd81610878565b82525050565b60006106ee826106b1565b9150819050919050565b60006020820190508181036000830152610712818461060f565b905092915050565b6000602082019050818103600083015261073381610648565b9050919050565b600060208201905081810360008301526107538161066b565b9050919050565b600060208201905081810360008301526107738161068e565b9050919050565b600060208201905061078f60008301846106d4565b92915050565b600081519050919050565b600081905092915050565b600082825260208201905092915050565b60006107c782610878565b91506107d283610878565b9250827fffffffffffffffffffffffffffffffffffffffffffffffffffffffffffffffff03821115610807576108066108b5565b5b828201905092915050565b600061081d82610878565b915061082883610878565b92508282101561083b5761083a6108b5565b5b828203905092915050565b600061085182610858565b9050919050565b600073ffffffffffffffffffffffffffffffffffffffff82169050919050565b6000819050919050565b60005b838110156108a0578082015181840152602081019050610885565b838111156108af576000848401525b50505050565b7f4e487b7100000000000000000000000000000000000000000000000000000000600052601160045260246000fd5b6000601f19601f8301169050919050565b7f5472616e73636174696f6e206973204661696c65640000000000000000000000600082015250565b7f416d6f756e74206d7573742062652067726561746572207468616e203130303060008201527f3030204777656900000000000000000000000000000000000000000000000000602082015250565b7f496e737566666963656e742062616c616e636520746f20776974686472617700600082015250565b50565b6109a281610846565b81146109ad57600080fd5b50565b6109b981610878565b81146109c457600080fd5b5056fea26469706673582212202109c1957ca877aca4fa4a186a06b4ee2d09b4906e007108c745b60c30ef2a2264736f6c63430008040033",
  "linkReferences": {},
  "deployedLinkReferences": {}
}